:020000040000FA
:060000000A128A110C280F
:10000800FE00030EF0000A08F1000A168A11802A81
:100018000A128A110F280A168A1185210A128A11D2
:10002800E9000A168A1186210A128A11EA000A16BC
:100038008A1187210A128A11EB000A168A1188216F
:100048000A128A11EC008313A0308400B8300A1613
:100058008A118F210A128A112030840050300A1622
:100068008A118F210A128A11F901FA01FB01830111
:100078000A168A11332F831203135D088400F130A6
:1000880083130006031D49284A2872280A128A1574
:1000980001200A128A11831203135B0884003F307F
:1000A800831380005D088400F43080000530BE00B2
:1000B8000030BF00FA01CA017230F6008330F70041
:1000C8000A168A115B220A128A119130F6009430BE
:1000D800F7000A168A115B220A128A118312031387
:1000E8005B0884003D3083130006031D7C287D28AF
:1000F800E2287A08031D812882288D280130C90743
:1001080020304902031C89288A28DC280130C900CC
:10011800DC287A03031D912892289D280130C807FE
:100128000D304802031C99289A28DC280130C800A1
:10013800DC2802307A06031DA228A328AD28013046
:10014800C70764304702031CAA28AB28DC28C7016C
:10015800DC2805307A06031DB228B328BD280130F3
:10016800FB073C307B02031CBA28BB28DC28FB01B8
:10017800DC2804307A06031DC228C328CD280130A4
:10018800CC073C304C02031CCA28CB28DC28CC0105
:10019800DC2803307A06031DD228D328DC28013056
:1001A800CD0718304D02031CDA28DB28DC28CD01E6
:1001B800CA010530BE000030BF003B295B0884003F
:1001C8003E300006031DE928EA28F52805307A02A2
:1001D8000318EF28F028F3280130FA07DC28FA0181
:1001E800DC285B088400FD300006031DFC28FD2880
:1001F8003B290A128A117A260A128A110A168A11CA
:10020800E4210A128A111230F600C030F7000A16EB
:100218008A115B220A128A117D30F6009030F700AD
:100228000A168A115B220A128A11333083120313C9
:10023800E000BB30DF00DF30DE00DE0B2129DF0B02
:100248002129E00B21290A168A11E4210A128A11B0
:10025800831203135C088400023083138000053086
:10026800CF0012155D088400F1308000792E05302A
:100278007A06031D402941291C2AD430D4000A30AB
:10028800F5000030F6004D08DE00DF015E08F700DB
:100298005F08F8000A168A11CA240A128A1175081A
:1002A800303E0A168A1107220A128A11D5308312A3
:1002B8000313D4000A30F5000030F6004D08DE00C4
:1002C800DF015E08F7005F08F8000A168A110E249D
:1002D8000A128A117508303E0A168A1107220A1274
:1002E8008A11D63083120313D4003A300A168A11C1
:1002F80007220A128A11D73083120313D4000A3056
:10030800F5000030F6004C08DE00DF015E08F7005B
:100318005F08F8000A168A11CA240A128A11750899
:10032800303E0A168A1107220A128A11D83083121F
:100338000313D4000A30F5000030F6004C08DE0044
:10034800DF015E08F7005F08F8000A168A110E241C
:100358000A128A117508303E0A168A1107220A12F3
:100368008A11D93083120313D4003A300A168A113D
:1003780007220A128A11013083120313BE020030C9
:10038800031CBF03BF023E083F04031DCC29CD292F
:10039800792E0530BE000030BF004A08031DD5295C
:1003A800D6290F2ADA30D4000A30F5000030F600DA
:1003B8007B08DE00DF015E08F7005F08F8000A1618
:1003C8008A11CA240A128A117508303E0A168A113F
:1003D80007220A128A11DB3083120313D4000A3071
:1003E800F5000030F6007B08DE00DF015E08F7004C
:1003F8005F08F8000A168A110E240A128A11750875
:10040800303E0A168A1107220A128A110130831215
:100418000313CA00792E0F30F600DA30F7000A16F7
:100428008A115B220A128A1183120313CA01792ED8
:1004380004307A06031D212A222AF62AD430D40051
:100448000A30F5000030F6004D08DE00DF015E08D6
:10045800F7005F08F8000A168A11CA240A128A11DE
:100468007508303E0A168A1107220A128A11D530F9
:1004780083120313D4000A30F5000030F6004D084B
:10048800DE00DF015E08F7005F08F8000A168A112F
:100498000E240A128A117508303E0A168A1107229C
:1004A8000A128A11D63083120313D4003A300A167E
:1004B8008A1107220A128A11D93083120313D40031
:1004C8003A300A168A1107220A128A11DA30831280
:1004D8000313D4000A30F5000030F6007B08DE0074
:1004E800DF015E08F7005F08F8000A168A11CA24BF
:1004F8000A128A117508303E0A168A1107220A1252
:100508008A11DB3083120313D4000A30F50000305F
:10051800F6007B08DE00DF015E08F7005F08F800E0
:100528000A168A110E240A128A117508303E0A1614
:100538008A1107220A128A11013083120313BE029C
:100548000030031CBF03BF023E083F04031DAD2A51
:10055800AE2A792E0530BE000030BF004A08031DC0
:10056800B62AB72AEC2AD730D4000A30F500003072
:10057800F6004C08DE00DF015E08F7005F08F800AF
:100588000A168A11CA240A128A117508303E0A16F8
:100598008A1107220A128A11D83083120313D40051
:1005A8000A30F5000030F6004C08DE00DF015E0876
:1005B800F7005F08F8000A168A110E240A128A1139
:1005C8007508303E0A168A1107220A128A110A2A69
:1005D8000F30F600D730F7000A168A115B220A128C
:1005E8008A11182A03307A06031DFB2AFC2AD02B0D
:1005F800D630D4003A300A168A1107220A128A1114
:10060800D73083120313D4000A30F5000030F60007
:100618004C08DE00DF015E08F7005F08F8000A16E4
:100628008A11CA240A128A117508303E0A168A11DC
:1006380007220A128A11D83083120313D4000A3011
:10064800F5000030F6004C08DE00DF015E08F70018
:100658005F08F8000A168A110E240A128A11750812
:10066800303E0A168A1107220A128A11D9308312DB
:100678000313D4003A300A168A1107220A128A1183
:10068800DA3083120313D4000A30F5000030F60084
:100698007B08DE00DF015E08F7005F08F8000A1635
:1006A8008A11CA240A128A117508303E0A168A115C
:1006B80007220A128A11DB3083120313D4000A308E
:1006C800F5000030F6007B08DE00DF015E08F70069
:1006D8005F08F8000A168A110E240A128A11750892
:1006E800303E0A168A1107220A128A110130831233
:1006F8000313BE020030031CBF03BF023E083F04C1
:10070800031D872B882B792E0530BE000030BF00D3
:100718004A08031D902B912BC62BD430D4000A30E5
:10072800F5000030F6004D08DE00DF015E08F70036
:100738005F08F8000A168A11CA240A128A11750875
:10074800303E0A168A1107220A128A11D5308312FE
:100758000313D4000A30F5000030F6004D08DE001F
:10076800DF015E08F7005F08F8000A168A110E24F8
:100778000A128A117508303E0A168A1107220A12CF
:100788008A110A2A0F30F600D430F7000A168A11A7
:100798005B220A128A11182A02307A06031DD52B09
:1007A800D62BB52CC330D4000A30F5000030F60043
:1007B8004908DE00DF015E08F7005F08F8000A1646
:1007C8008A11CA240A128A117508303E0A168A113B
:1007D80007220A128A11C43083120313D4000A3084
:1007E800F5000030F6004908DE00DF015E08F7007A
:1007F8005F08F8000A168A110E240A128A11750871
:10080800303E0A168A1107220A128A11C53083124D
:100818000313D4002F300A168A1107220A128A11EC
:10082800C63083120313D4000A30F5000030F600F6
:100838004808DE00DF015E08F7005F08F8000A16C6
:100848008A11CA240A128A117508303E0A168A11BA
:1008580007220A128A11C73083120313D4000A3000
:10086800F5000030F6004808DE00DF015E08F700FA
:100878005F08F8000A168A110E240A128A117508F0
:10088800303E0A168A1107220A128A11C8308312CA
:100898000313D4002F300A168A1107220A128A116C
:1008A800013083120313BE020030031CBF03BF02D2
:1008B8003E083F04031D612C622C792E0530BE00D2
:1008C8000030BF004A08031D6A2C6B2CAB2CB030DB
:1008D800F600C930F7000A168A115B220A128A113B
:1008E800CB3083120313D4000A30F5000030F60031
:1008F8004708DE00DF015E08F7005F08F8000A1607
:100908008A11CA240A128A117508303E0A168A11F9
:1009180007220A128A11CC3083120313D4000A303A
:10092800F5000030F6004708DE00DF015E08F7003A
:100938005F08F8000A168A110E240A128A1175082F
:10094800303E0A168A1107220A128A110A2A0D3025
:10095800F600C930F7000A168A115B220A128A11BA
:10096800182A7A03031DB92CBA2C972DC330D4004A
:100978000A30F5000030F6004908DE00DF015E08A5
:10098800F7005F08F8000A168A11CA240A128A11A9
:100998007508303E0A168A1107220A128A11C430D5
:1009A80083120313D4000A30F5000030F60049081A
:1009B800DE00DF015E08F7005F08F8000A168A11FA
:1009C8000E240A128A117508303E0A168A11072267
:1009D8000A128A11C53083120313D4002F300A1665
:1009E8008A1107220A128A11C83083120313D4000D
:1009F8002F300A168A1107220A128A11B030F6001F
:100A0800C930F7000A168A115B220A128A11CB3004
:100A180083120313D4000A30F5000030F6004708AB
:100A2800DE00DF015E08F7005F08F8000A168A1189
:100A3800CA240A128A117508303E0A168A1107223A
:100A48000A128A11CC3083120313D4000A30F5003D
:100A58000030F6004708DE00DF015E08F7005F0897
:100A6800F8000A168A110E240A128A117508303EF7
:100A78000A168A1107220A128A11013083120313F7
:100A8800BE020030031CBF03BF023E083F04031D23
:100A98004E2D4F2D792E0530BE000030BF004A087C
:100AA800031D572D582D8D2DC630D4000A30F50062
:100AB8000030F6004808DE00DF015E08F7005F0836
:100AC800F8000A168A11CA240A128A117508303EDB
:100AD8000A168A1107220A128A11C73083120313D1
:100AE800D4000A30F5000030F6004808DE00DF01C7
:100AF8005E08F7005F08F8000A168A110E240A1229
:100B08008A117508303E0A168A1107220A128A11BC
:100B18000A2A0F30F600C630F7000A168A115B223F
:100B28000A128A11182A7A08031D9B2D9C2D792EEA
:100B3800C530D4002F300A168A1107220A128A11EA
:100B4800C63083120313D4000A30F5000030F600D3
:100B58004808DE00DF015E08F7005F08F8000A16A3
:100B68008A11CA240A128A117508303E0A168A1197
:100B780007220A128A11C73083120313D4000A30DD
:100B8800F5000030F6004808DE00DF015E08F700D7
:100B98005F08F8000A168A110E240A128A117508CD
:100BA800303E0A168A1107220A128A11C8308312A7
:100BB8000313D4002F300A168A1107220A128A1149
:100BC800B030F600C930F7000A168A115B220A1203
:100BD8008A11CB3083120313D4000A30F500003099
:100BE800F6004708DE00DF015E08F7005F08F8003E
:100BF8000A168A11CA240A128A117508303E0A1682
:100C08008A1107220A128A11CC3083120313D400E6
:100C18000A30F5000030F6004708DE00DF015E0804
:100C2800F7005F08F8000A168A110E240A128A11C2
:100C38007508303E0A168A1107220A128A110130F5
:100C480083120313BE020030031CBF03BF023E0819
:100C58003F04031D302E312E792E0530BE000030A2
:100C6800BF004A08031D392E3A2E6F2EC330D40018
:100C78000A30F5000030F6004908DE00DF015E08A2
:100C8800F7005F08F8000A168A11CA240A128A11A6
:100C98007508303E0A168A1107220A128A11C430D2
:100CA80083120313D4000A30F5000030F600490817
:100CB800DE00DF015E08F7005F08F8000A168A11F7
:100CC8000E240A128A117508303E0A168A11072264
:100CD8000A128A110A2A0F30F600C330F7000A16E2
:100CE8008A115B220A128A11182A08000A30F500B4
:100CF8000030F600831203134908D400D5015408C4
:100D0800F7005508F8000A168A110E240A128A11EB
:100D1800750883120313D6007608D7000A30F50049
:100D28000030F6004908D800D9015808F7005908DA
:100D3800F8000A168A11CA240A128A117508831241
:100D48000313DA0003300310DA0DFF3E031DA72E4C
:100D580003105A0D5604C9000A30F5000030F60099
:100D68004808D400D5015408F7005508F8000A16B9
:100D78008A110E240A128A11750883120313D600E9
:100D88007608D7000A30F5000030F6004808D80089
:100D9800D9015808F7005908F8000A168A11CA2418
:100DA8000A128A11750883120313DA00033003103C
:100DB800DA0DFF3E031DDB2E03105A0D5604C80042
:100DC8000A30F5000030F6004708D400D501540871
:100DD800F7005508F8000A168A110E240A128A111B
:100DE800750883120313D6007608D7000A30F50079
:100DF8000030F6004708D800D9015808F70059080C
:100E0800F8000A168A11CA240A128A117508831270
:100E18000313DA0003300310DA0DFF3E031D0F2F12
:100E280003105A0D5604C7000A30F5000030F600CA
:100E38004D08D400D5015408F7005508F8000A16E3
:100E48008A110E240A128A11750883120313D60018
:100E58007608D7000A30F5000030F6004D08D800B3
:100E6800D9015808F7005908F8000A168A11CA2447
:100E78000A128A11750883120313DA00033003106B
:100E8800DA0DFF3E031D432F03105A0D5604CD0003
:100E98000A30F5000030F6004C08D400D50154089B
:100EA800F7005508F8000A168A110E240A128A114A
:100EB800750883120313D6007608D7000A30F500A8
:100EC8000030F6004C08D800D9015808F700590836
:100ED800F8000A168A11CA240A128A1175088312A0
:100EE8000313DA0003300310DA0DFF3E031D772FDA
:100EF80003105A0D5604CC000A30F5000030F600F5
:100F08007B08D400D5015408F7005508F8000A16E4
:100F18008A110E240A128A11750883120313D60047
:100F28007608D7000A30F5000030F6007B08D800B4
:100F3800D9015808F7005908F8000A168A11CA2476
:100F48000A128A11750883120313DA00033003109A
:100F5800DA0DFF3E031DAB2F03105A0D5604FB009C
:100F68004908F30004300A168A111C220A128A1151
:100F7800831203134808F30005300A168A111C224D
:100F88000A128A11831203134708F30006300A165F
:100F98008A111C220A128A11831203134D08F300C6
:100FA80002300A168A111C220A128A1183120313AC
:100FB8004C08F30001300A168A111C220A128A1101
:100FC8007B08F30000300A168A111C220A128A11C3
:100FD8000800F400F301741CF22FF32FF52F7208A8
:100FE800F3070310F20D0310F40C7408031DFD2F12
:080FF800FE2FEF2F7308080023
:101002000A168A1196260A128A15831203133808C1
:10101200F70004300310F70CFF3E031D0B2877087E
:10102200C9000F30C9050F303805F7000A30F20049
:1010320049080A128A11ED270A128A1577078312C4
:101042000313C9003908F70004300310F70CFF3E00
:10105200031D26287708C8000F30C8050F30390550
:10106200F7000A30F20048080A128A11ED270A1224
:101072008A15770783120313C8003A08F700043071
:101082000310F70CFF3E031D41287708C7000F30FD
:10109200C7050F303A05F7000A30F20047080A1276
:1010A2008A11ED270A128A15770783120313C700E4
:1010B2003B08F70004300310F70CFF3E031D5C28C9
:1010C2007708CD000F30CD050F303B05F7000A3011
:1010D200F2004D080A128A11ED270A128A157707C3
:1010E20083120313CD003C08F70004300310F70C01
:1010F200FF3E031D77287708CC000F30CC050F3058
:101102003C05F7000A30F2004C080A128A11ED275A
:101112000A128A15770783120313CC003D08F700E1
:1011220004300310F70CFF3E031D92287708FB00E2
:101132000F30FB050F303D05F7000A30F2007B0847
:101142000A128A11ED270A128A157707FB00FA01A3
:1011520083120313CA010530BE000030BF0008002D
:101162000A128A158C210A128A1583120313530854
:10117200E5005208E400640A031DC328650A031D42
:10118200C328C428CE280730F600D730F7000A1645
:101192008A115B220A128A158B29D730D4000A30B1
:1011A200F5000030F6000330F20064080A128A11DA
:1011B200ED270A128A15A03E8400831300088312C9
:1011C2000313E200E3016208F7006308F8000A165D
:1011D2008A11CA240A128A157508303E0A168A1123
:1011E20007220A128A15D83083120313D4000A3058
:1011F200F5000030F6000330F20064080A128A118A
:10120200ED270A128A15A03E840083130008831278
:101212000313E200E3016208F7006308F8000A160C
:101222008A110E240A128A157508303E0A168A118E
:1012320007220A128A15D93083120313D4003A30D6
:101242000A168A1107220A128A15DA308312031348
:10125200D4000A30F5000030F6000330F2006408D2
:101262000A128A11ED270A128A15A13E84008313FD
:10127200000883120313E200E3016208F700630827
:10128200F8000A168A11CA240A128A157508303E15
:101292000A168A1107220A128A15DB3083120313F7
:1012A200D4000A30F5000030F6000330F200640882
:1012B2000A128A11ED270A128A15A13E84008313AD
:1012C200000883120313E200E3016208F7006308D7
:1012D200F8000A168A110E240A128A157508303E81
:1012E2000A168A1107220A128A15DD3083120313A5
:1012F200D4000330F20064080A128A11ED270A12A0
:101302008A15A23E8400831300080A168A11072256
:101312000A128A150800A13083120313DB0005307C
:10132200DC00FF30DD00FF30DE000A168A1196264F
:101332000A128A150F30831203133B05D4000A30B8
:10134200F2003B08D50004300310D50CFF3E031D0C
:10135200A52955080A128A11ED270A128A15831245
:1013620003135407CD000F303C05D4000A30F200BD
:101372003C08D50004300310D50CFF3E031DBC29E8
:1013820055080A128A11ED270A128A1583120313CD
:101392005407CC004D08D400D5015408F500550877
:1013A200F6003C30F7000030F8000A168A11F622E7
:1013B2000A128A15831203134C087507D7000030EE
:1013C200031801307607D800E101612A0330F200E8
:1013D20061080A128A11ED270A128A15A13E8400B9
:1013E2008313000883120313D4000330F200610850
:1013F2000A128A11ED270A128A15A03E840083136D
:10140200000883120313D500D6015508F5005608CB
:10141200F6003C30F7000030F8000A168A11F62276
:101422000A128A158312031354087507D900003073
:10143200031801307607DA0057085902DF0058080E
:10144200031C580A5A02E000E01F282A292A422ACD
:101452000330F20061080A128A11ED270A128A1576
:10146200A23E8400443083130006031D392A3A2A1F
:101472005D2AA03083120313DF070318E00A053048
:10148200E0076008803AD4005C08803A5402031DE9
:101492004C2A5B085F0203184F2A502A5D2A8312E6
:1014A20003136008DC005F08DB006108D400D5018B
:1014B2005408DD005508DE00013083120313E107F2
:1014C20046086102031C662A672AE7295E08D300E0
:1014D2005D08D2000800A930F6008030F7000A1635
:1014E2008A115B220A128A150A168A1196260A1294
:1014F2008A15863083120313D40020080A168A1133
:1015020007220A128A15873083120313D400210896
:101512000A168A1107220A128A15883083120313C7
:10152200D4002F300A168A1107220A128A1589302E
:1015320083120313D40022080A168A1107220A1200
:101542008A158A3083120313D40023080A168A11DB
:1015520007220A128A158B3083120313D4002F300C
:101562000A168A1107220A128A158C308312031373
:10157200D40024080A168A1107220A128A158D300D
:1015820083120313D40025080A168A1107220A12AD
:101592008A158E3083120313D40026080A168A1184
:1015A20007220A128A158F3083120313D4002708E8
:1015B2000A168A1107220A128A15A230F600C030D2
:1015C200F7000A168A115B220A128A15C6308312A4
:1015D2000313D40031080A168A1107220A128A1547
:1015E200C73083120313D40032080A168A11072265
:1015F2000A128A15C83083120313D4003A300A162D
:101602008A1107220A128A15C93083120313D400E1
:1016120033080A168A1107220A128A15CA3083125F
:101622000313D40034080A168A1107220A128A15F3
:10163200CB3083120313D4003A300A168A110722E0
:101642000A128A15CC3083120313D40035080A1605
:101652008A1107220A128A15CD3083120313D4008D
:1016620036080A168A1107220A128A150A30F2006F
:101672008312031331080A128A11ED270A128A15FE
:10168200831203133207F03ECE000C304E02031CCD
:101692004B2B4C2B562BB630F600CE30F7000A16E9
:1016A2008A115B220A128A155F2BB330F600CE3004
:1016B200F7000A168A115B220A128A159A30F6007E
:1016C200D030F7000A168A115B220A128A150A1212
:1016D2008A15B1200A128A150800831203135808CA
:1016E2008400F23083130006031D782B792B842BA0
:1016F200560884003F30800058088400F43080008F
:101702000530CF00F9014F08031D882B892B9A2B36
:101712000A168A11E4210A128A1583120313570842
:101722008400023083138000053083120313CF003C
:10173200482D79084606031D9F2BA02BB32B66303C
:10174200F6008030F7000A168A115B220A128A1507
:101752000130F600C030F7000A168A115B220A1225
:101762008A15862C8830F6008030F7000A168A1116
:101772005B220A128A15883083120313D400790877
:10178200313E0A168A1107220A128A15C2308312C2
:101792000313D4000A30F5000030F6000330F200E3
:1017A20079080A128A11ED270A128A15A03E8400CE
:1017B2008313000883120313D900DA015908F700D2
:1017C2005A08F8000A168A11CA240A128A157508DC
:1017D200303E0A168A1107220A128A15C330831272
:1017E2000313D4000A30F5000030F6000330F20093
:1017F20079080A128A11ED270A128A15A03E84007E
:101802008313000883120313D900DA015908F70081
:101812005A08F8000A168A110E240A128A15750847
:10182200303E0A168A1107220A128A15C430831220
:101832000313D4003A300A168A1107220A128A15B3
:10184200C53083120313D4000A30F5000030F600CD
:101852000330F20079080A128A11ED270A128A155A
:10186200A13E84008313000883120313D900DA0116
:101872005908F7005A08F8000A168A11CA240A12EF
:101882008A157508303E0A168A1107220A128A152D
:10189200C63083120313D4000A30F5000030F6007C
:1018A2000330F20079080A128A11ED270A128A150A
:1018B200A13E84008313000883120313D900DA01C6
:1018C2005908F7005A08F8000A168A110E240A125B
:1018D2008A157508303E0A168A1107220A128A15DD
:1018E200C83083120313D4000330F20079080A12BD
:1018F2008A11ED270A128A15A23E8400831300087A
:101902000A168A1107220A128A158312031356082D
:1019120084003E3083130006031D902C912C9F2CD3
:10192200460879020318962C972C952B0130F9075B
:101932000A168A11E4210A128A15952B5608840088
:101942003D300006031DA62CA72CAF2C79080319E5
:10195200AB2CAC2C952B0130F902992C5608840043
:10196200FD300006031DB62CB72C042D790846065F
:10197200031DBC2CBD2CC42CA130C500CD01CC0153
:101982004430CB00F32CB130C5000330F2007908AB
:101992000A128A11ED270A128A15A03E84008313C7
:1019A200000883120313CD000330F20079080A12F3
:1019B2008A11ED270A128A15A13E840083130008BA
:1019C20083120313CC000330F20079080A128A1141
:1019D200ED270A128A15A23E84008313000883129F
:1019E2000313CB0057088400063080005808840097
:1019F200F330800012110530CF000A168A11E4215B
:101A02000A128A15482D56088400FE300006031D6E
:101A12000B2D0C2D482D79080A168A11B6230A12AD
:101A22008A150A168A11E4210A128A153130F60043
:101A32008030F7000A168A115B220A128A154D308D
:101A4200F600C030F7000A168A115B220A128A15C4
:101A5200333083120313DB00BB30DA00DF30D900EE
:101A6200D90B312DDA0B312DDB0B312D0A168A11F0
:101A7200E4210A128A1583120313570884000430E2
:101A82008313800058088400F2308000952B0800F0
:101A92008312031358088400F33083130006031DD6
:101AA200532D542D6E2D560884003F3080005A303D
:101AB200F600C230F7000A168A115B220A128A1552
:101AC2008312031358088400F43083138000FA0150
:101AD2000530BE000030BF00CA01560884003D3008
:101AE2000006031D752D762DB62D02307A06031DD4
:101AF2007B2D7C2D972D4F304B06031D812D822D82
:101B0200852D4430CB00B42D44304B06031D8A2D65
:101B12008B2D8E2D5730CB00B42D57304B06031D25
:101B2200932D942DB42D4F30CB00B42D7A03031D89
:101B32009B2D9C2DA62D0130CC073C304C02031C62
:101B4200A32DA42DB42DCC01B42D7A08031DAA2DEA
:101B5200AB2DB42D0130CD0718304D02031CB22D30
:101B6200B32DB42DCD01CA010F2E560884003E308C
:101B72000006031DBD2DBE2DC92D02307A020318A9
:101B8200C32DC42DC72D0130FA070F2EFA010F2ED7
:101B920056088400FD300006031DD02DD12D0F2ED6
:101BA2000A168A1195250A128A150A168A11E42143
:101BB2000A128A156830F600C030F7000A168A1138
:101BC2005B220A128A157D30F6009030F7000A1661
:101BD2008A115B220A128A15333083120313DB0047
:101BE200BB30DA00DF30D900D90BF52DDA0BF52D39
:101BF200DB0BF52D0A168A11E4210A128A158312CB
:101C02000313570884000430831380000530CF008B
:101C1200121558088400F2308000FF2F02307A0635
:101C2200031D142E152EB92E9230D4000A30F50061
:101C32000030F6004D08D900DA015908F7005A08B9
:101C4200F8000A168A11CA240A128A157508303E4B
:101C52000A168A1107220A128A1593308312031375
:101C6200D4000A30F5000030F6004D08D900DA0140
:101C72005908F7005A08F8000A168A110E240A12A7
:101C82008A157508303E0A168A1107220A128A1529
:101C9200943083120313D4003A300A168A110722B1
:101CA2000A128A15953083120313D4000A30F50004
:101CB2000030F6004C08D900DA015908F7005A083A
:101CC200F8000A168A11CA240A128A157508303ECB
:101CD2000A168A1107220A128A15963083120313F2
:101CE200D4000A30F5000030F6004C08D900DA01C1
:101CF2005908F7005A08F8000A168A110E240A1227
:101D02008A157508303E0A168A1107220A128A15A8
:101D1200013083120313BE020030031CBF03BF0253
:101D22003E083F04031D962E972EFF2F0530BE005E
:101D32000030BF004A08031D9F2EA02EAD2E983002
:101D4200D4004B080A168A1107220A128A1501309A
:101D520083120313CA00FF2F9830D40020300A16D2
:101D62008A1107220A128A1583120313CA01FF2F4E
:101D72007A03031DBD2EBE2E5C2F9230D4000A3092
:101D8200F5000030F6004D08D900DA015908F700D5
:101D92005A08F8000A168A11CA240A128A15750806
:101DA200303E0A168A1107220A128A1593308312CC
:101DB2000313D4000A30F5000030F6004D08D900B4
:101DC200DA015908F7005A08F8000A168A110E2497
:101DD2000A128A157508303E0A168A1107220A125B
:101DE2008A15943083120313D4003A300A168A11EA
:101DF20007220A128A15983083120313D4004B0863
:101E02000A168A1107220A128A1501308312031355
:101E1200BE020030031CBF03BF023E083F04031D85
:101E2200132F142FFF2F0530BE000030BF004A08C9
:101E3200031D1C2F1D2F522F9530D4000A30F500A0
:101E42000030F6004C08D900DA015908F7005A08A8
:101E5200F8000A168A11CA240A128A157508303E39
:101E62000A168A1107220A128A1596308312031360
:101E7200D4000A30F5000030F6004C08D900DA012F
:101E82005908F7005A08F8000A168A110E240A1295
:101E92008A157508303E0A168A1107220A128A1517
:101EA200A82E0F30F6009530F7000A168A115B2231
:101EB2000A128A15B52E7A08031D602F612FFF2F93
:101EC2009430D4003A300A168A1107220A128A156F
:101ED200953083120313D4000A30F5000030F60067
:101EE2004C08D900DA015908F7005A08F8000A1616
:101EF2008A11CA240A128A157508303E0A168A11F6
:101F020007220A128A15963083120313D4000A306C
:101F1200F5000030F6004C08D900DA015908F70044
:101F22005A08F8000A168A110E240A128A15750830
:101F3200303E0A168A1107220A128A159830831235
:101F42000313D4004B080A168A1107220A128A15B3
:101F5200013083120313BE020030031CBF03BF0211
:101F62003E083F04031DB62FB72FFF2F0530BE00DA
:101F72000030BF004A08031DBF2FC02FF52F92303B
:101F8200D4000A30F5000030F6004D08D900DA011D
:101F92005908F7005A08F8000A168A11CA240A12C8
:101FA2008A157508303E0A168A1107220A128A1506
:101FB200933083120313D4000A30F5000030F60088
:101FC2004D08D900DA015908F7005A08F8000A1634
:101FD2008A110E240A128A157508303E0A168A11D1
:101FE20007220A128A15A82E0F30F6009430F70045
:101FF2000A168A115B220A128A15B52E08001030C1
:102002008A000408840A82070034203420342034F1
:10201200203420342034203420342034203420341E
:1020220020342034203420342034003454346934B1
:102032006D34653420342F342034443461347434A4
:102042006534203473346534743400345334653465
:1020520074342F345634693465347734203441343F
:102062006C34613472346D34003441346C34613414
:1020720072346D342034443465346C3465347434D1
:102082006534643400345334653474342034543445
:1020920069346D3465342F344434613474346534B6
:1020A20000345334753463346334653473347334B5
:1020B200663475346C346C347934003448344834C2
:1020C2003A344D344D3420344F342F3444342F3489
:1020D200573400342A342034413464346434203494
:1020E20041346C34613472346D34003444344434D9
:1020F2002F344D344D342F345934593459345934E2
:102102000034533475346334633465347334733454
:10211200663475346C3400342A34203441346C34DF
:10212200613472346D3420340034483448343A34E3
:102132004D344D343A3453345334003445345634E8
:1021420045344E3454343A3420340034543449340F
:102152004D3445343A342034003444344134543418
:1021620045343A342034003432343034003441348B
:0A2172004D34003450344D34003475
:10230A003F34223401343F348316031306083F381E
:10231A008600080064008001840A04060319003458
:10232A00040690290A168A11CA210A168A118316E6
:10233A000313111408000A168A11CA210A168A11EF
:10234A0083160313111508000A168A11A0210A160A
:10235A008A110A168A1197210A168A110800F200B0
:10236A000A168A11CA210A168A11720883120313DD
:10237A0093000800831603138801091189100A16AD
:10238A008A1167240A168A1108008316031314197E
:10239A00CF29D029CA2911081F39031DD529D629C1
:1023AA00CA2908008312031312149214FA308316EE
:1023BA00031392008C148312031312110800F20102
:1023CA0001300A168A1180230A168A110430F7008E
:1023DA003D30F600F60BEF29F70BEF29F429080038
:1023EA0000300A168A1121230A168A11F6007F3054
:1023FA00F6057608F30000300A168A111C220A161E
:10240A008A11080083120313D500F20154080A1630
:10241A008A1180230A168A11F201F20A831203131F
:10242A0055080A168A1180230A168A110800F40030
:10243A000A168A1197210A168A11D0300A168A11A9
:10244A00B4210A168A1174080A168A11B4210A16C6
:10245A008A1173080A168A11B4210A168A110A16F1
:10246A008A11A0210A168A110800F2000A168A1196
:10247A00CA210A168A118316031391150A168A119C
:10248A00CA210A168A11831203131308F30072036E
:10249A00031D502A512A552A831603139116582AC6
:1024AA00831603139112111673080800F2017708B4
:1024BA000A168A1180230A168A11732AF201F20A6D
:1024CA00760884000A168A1100200A168A110A164A
:1024DA008A1180230A168A110130F60776088400C9
:1024EA000A168A1100200A168A11003A031D7E2A4A
:1024FA007F2A632A0800831203138C1C852A862AE2
:10250A009F2A0130C0070318C10A0030C107E23010
:10251A004006043003194106031D942A952A9E2A6F
:10252A00C001C1014F0803199B2A9C2A9E2A013027
:10253A00CF028C1071088A00700E8300FE0E7E0E88
:10254A000900003083120313DB000130DA00863001
:10255A00D900A030D8000A168A114C230A168A110B
:10256A000A168A11F5210A168A110A168A11BF213A
:10257A000A168A110A168A1189210A168A110A1656
:10258A008A11D7210A168A110B178B170800F30034
:10259A007308031DD12AD22AD72A831203130608E5
:1025AA003F39F52A3F30831203130605F2003F3004
:1025BA0072060319E12AE22AE92A6B080319E62AB4
:1025CA00E72AE92AEB01D22A3F300605F2003F301A
:1025DA007206031DF12AF22AF42A0130EB003F3079
:1025EA00080083120313D001D101751CFD2AFE2AAB
:1025FA00062B770883120313D0070318D10A780829
:10260A00D10701300310F70DF80DFF3E031D072B0C
:10261A0001300310F60CF50CFF3E031D0E2B750856
:10262A007604031D192B1A2BFA2A83120313510855
:10263A00F6005008F5000800F4000A168A119721DE
:10264A000A168A11D0300A168A11B4210A168A117A
:10265A0074080A168A11B4210A168A110A168A11EE
:10266A00A9210A168A11D1300A168A11B4210A162A
:10267A008A1100300A168A113A220A168A11F500BE
:10268A000A168A11A0210A168A11750808008312EF
:10269A00031394155808DC005908DD005A08DE00B7
:1026AA005B08DF0002300310DC0DDD0DDE0DDF0DEF
:1026BA00FF3E031D582B5F08D3005E08D2005D0859
:1026CA00D1005C08D0000130D7003130D6002D305F
:1026DA00D5000030D4000A168A112F250A168A114D
:1026EA00831203135008FF3E8316031393008312C9
:1026FA00031394160800F5007218842B882B831292
:10270A00031309158B2B8312031309117508F0396A
:10271A0088008914A630F300F30B912B0000831272
:10272A000313891075080F39F30003300310F30DF2
:10273A00FF3E031D9B2B0310730D88008914A630DE
:10274A00F300F30BA62B00008312031389101B302E
:10275A00F4009E30F300F30BB02BF40BB02B000007
:10276A00080083120313D0005008D100EA2B03306B
:10277A00F2008312031351080A128A11ED270A166E
:10278A008A11A33E840083130008F500840A000816
:10279A00F600840A0008F7000330F20083120313DC
:1027AA0051080A128A11ED270A168A11A03E8400DE
:1027BA00750883138000840A76088000840A7708E3
:1027CA008000013083120313D1074608FF3EF5004B
:1027DA00FF3003180030F6007608803A803C031D6B
:1027EA00F82B75085102031CFB2BFC2BBC2B013068
:1027FA0083120313C60246087902031C052C062C11
:10280A000D2C790803190A2C0B2C0D2C0130F90216
:10281A00080083120313D101F81F142C152C1C2C49
:10282A00F709F809F70A0319F80A0130D100F61F67
:10283A001F2C202C252CF509F609F50A0319F60A8E
:10284A007508760403192A2C2B2C582C0130D00039
:10285A00372C01300310F50DF60DFF3E031D2F2C0A
:10286A000130D007F61F3A2C3B2C2E2C7608780222
:10287A00031D412C75087702031C442C452C4B2C54
:10288A007508F7027608031CF803F80201300310F2
:10289A00F60CF50CFF3E031D4C2C0130D002031D33
:1028AA00572C582C3B2C510803195C2C5D2C622C9C
:1028BA00F709F809F70A0319F80A7808F6007708F9
:1028CA00F5000800C330F700CD30F600F60B6B2C8C
:1028DA00F70B6B2CF20133300A168A1180230A1681
:1028EA008A111B30F7009E30F600F60B7A2CF70B94
:1028FA007A2C0000F20133300A168A1180230A1654
:10290A008A11A630F600F60B882C0000F20133304B
:10291A000A168A1180230A168A11932C942C000015
:10292A00F20102300A168A1180230A168A11A63089
:10293A00F600F60B9E2C0000F20128300A168A11C6
:10294A0080230A168A11A630F600F60BAA2C00007C
:10295A00F20101300A168A1180230A168A110430FC
:10296A00F7003D30F600F60BB82CF70BB82CBD2C4F
:10297A00F2010C300A168A1180230A168A11A6302F
:10298A00F600F60BC62C0000080083120313D101CF
:10299A00F61FD02CD12CD82CF509F609F50A031903
:1029AA00F60A0130D100F81FDB2CDC2CE32CF709E6
:1029BA00F809F70A0319F80A0130D106D201D3013E
:1029CA00750876040319EA2CEB2C202D0130D0006F
:1029DA00F72C01300310F50DF60DFF3E031DEF2C09
:1029EA000130D007F61FFA2CFB2CEE2C0130031015
:1029FA00D20DD30DFF3E031DFC2C76087802031D71
:102A0A00082D75087702031C0B2D0C2D132D750844
:102A1A00F7027608031CF803F80252140130031077
:102A2A00F60CF50CFF3E031D142D0130D002031DD8
:102A3A001F2D202DFB2C51080319242D252D2A2D5D
:102A4A00D209D309D20A0319D30A5308F600520845
:102A5A00F50008000030F6000030F5000030F40000
:102A6A000030F30083120313530852045104500434
:102A7A000319402D412D8C2D0130F7004F2D0130C7
:102A8A00F2000310D00DD10DD20DD30DF20B462D4D
:102A9A000130F707D31F522D532D442D0130F20078
:102AAA000310F30DF40DF50DF60DF20B552D530829
:102ABA005702031D6A2D52085602031D6A2D51083A
:102ACA005502031D6A2D50085402031C6D2D6E2DEC
:102ADA007D2D5008D4025108031C510FD50252080B
:102AEA00031C520FD6025308031C530FD702731448
:102AFA0001300310D30CD20CD10CD00CFF3E031DB5
:102B0A007E2D0130F702031D8B2D8C2D532D760857
:102B1A00D3007508D2007408D1007308D0000800E9
:102B2A00A130831203134506031D9C2D9D2DD32D21
:102B3A00083046020318A22DA32D002E0330F200FE
:102B4A0046080A128A11ED270A168A11A03E840045
:102B5A00831203134D08831380000330F2004608E2
:102B6A000A128A11ED270A168A11A13E84008312DD
:102B7A0003134C08831380000330F20046080A123C
:102B8A008A11ED270A168A11A23E840083120313C2
:102B9A004B08831380000130C607002E0330F20071
:102BAA0079080A128A11ED270A168A11A03E8400B2
:102BBA00831203134D08831380000330F20079084F
:102BCA000A128A11ED270A168A11A13E840083127D
:102BDA0003134C08831380000330F20079080A12A9
:102BEA008A11ED270A168A11A23E84008312031362
:102BFA004B0883138000080083120313D8004F0880
:102C0A00031D082E092E172E0A168A11E4210A1608
:102C1A008A1183120313560884000130831380003B
:102C2A001211952E3E305806031D1C2E1D2E2E2ED7
:102C3A004408031D212E222E2E2E0130C4070A1607
:102C4A008A11E4210A168A11053083120313CF0070
:102C5A003C2E3D305806031D332E342E3C2E44089C
:102C6A000319382E392E3C2E0130C402242E440872
:102C7A00031D402E412E4A2E8030D4002A300A16D7
:102C8A008A1107220A168A11522EC030D4002A301D
:102C9A000A168A1107220A168A118312031369086F
:102CAA00F6008230F7000A168A115B220A168A1188
:102CBA00831203136A08F600C230F7000A168A1153
:102CCA005B220A168A11FD30831203135806031D6C
:102CDA006F2E702E952E0530CF004408031D762ED8
:102CEA00772E862E560884000330831380005708F7
:102CFA008400F13080000A168A11E4210A168A112A
:102D0A00952E4403031D8A2E8B2E952E5608840079
:102D1A0004308313800057088400F2308000802E2C
:102D2A00080004300A168A1121230A168A1183120E
:102D3A000313B80005300A168A1121230A168A11CC
:102D4A0083120313B90006300A168A1121230A16C0
:102D5A008A1183120313BA0002300A168A11212338
:102D6A000A168A1183120313BB0001300A168A114C
:102D7A0021230A168A1183120313BC0000300A1693
:102D8A008A1121230A168A1183120313BD003808F7
:102D9A00F60004300310F60CFF3E031DCF2E760812
:102DAA000F39303EA00038080F39303EA1003908EB
:102DBA00F60004300310F60CFF3E031DDF2E7608E2
:102DCA000F39303EA20039080F39303EA3003230A5
:102DDA00A4003030A5003A08F60004300310F60CBF
:102DEA00FF3E031DF32E76080F39303EA6003A083F
:102DFA000F39303EA700A8013B08F6000430031043
:102E0A00F60CFF3E031D042F76080F39303EB10041
:102E1A003B080F39303EB2003C08F600043003107C
:102E2A00F60CFF3E031D142F76080F39303EB3000F
:102E3A003C080F39303EB4003D08F6000430031058
:102E4A00F60CFF3E031D242F76080F39303EB500DD
:102E5A003D080F39303EB600B70108000130831231
:102E6A000313E700F430E6000A168A11A6220A16AE
:102E7A008A1100300A168A11CC220A168A11831284
:102E8A000313E8003F30680603194C2F4D2F612FBA
:102E9A0068086C06031D522F532F5A2F0130C207A0
:102EAA000318C30A0030C3075E2F6808EC00C2018A
:102EBA00C3010330E800972F3F306C060319662FD1
:102ECA00672F5E2F00304302053003194202031CAC
:102EDA006F2F702F912F802FFE30E800932FFD3037
:102EEA00E800932FFB30E800932FF730E800932F88
:102EFA00FF30E800932F6C082F3A03197D2F183AF8
:102F0A0003197A2F0C3A0319772F063A0319742FEB
:102F1A00033A0319712F932F6C08E8003F30EC0035
:102F2A00C201C3016703031D9B2F9C2FEC2F3E3068
:102F3A0068060319A12FA22FA82F3D306806031D8A
:102F4A00A72FA82FEC2F0230E7000A168A11E421D6
:102F5A000A168A11053083120313CF001215EC2FBB
:102F6A000A128A156C220A168A113E2F6730D60079
:102F7A006630D70068080A168A1101260A168A11CD
:102F8A003E2F12116830DB006730DC006630DD004E
:102F9A000A128A113F200A168A113E2F121568302A
:102FAA00D6006730D7006630D8000A128A156E2319
:102FBA000A168A113E2F6830D6006730D70066306D
:102FCA00D8000A128A1549250A168A113E2F67085F
:102FDA00013A0319B52F033A0319BB2F013A031912
:102FEA00C62F073A0319D32F023A0319E02F3E2FAF
:062FFA000A128A110C28E6
:02400E00FB3F76
:00000001FF
